:020000040800F2
:1000000090070020450100084D0100084F0100083D
:1000100051010008530100085501000800000000CC
:100020000000000000000000000000005701000870
:1000300059010008000000005B0100085D01000894
:100040005F0100085F0100085F0100085F01000810
:100050005F0100085F0100085F0100085F01000800
:100060005F0100085F0100085F0100085F010008F0
:100070005F0100085F0100085F0100085F010008E0
:100080005F0100085F0100085F0100085F010008D0
:100090005F0100085F0100085F0100085F010008C0
:1000A0005F0100085F0100085F0100085F010008B0
:1000B0005F010008270700085F0100085F010008D2
:1000C0005F0100085F0100085F0100085F01000890
:1000D0005F010008DD0300082726000895040008DA
:1000E0005F0100085F0100085F0100085F01000870
:1000F0005F0100085F0100085F0100085F01000860
:100100005F0100085F0100085F0100085F0100084F
:100110005F0100085F0100085F0100085F0100083F
:100120005F0100085F0100085F0100085F0100082F
:10013000DFF80CD003F016FD004800476901000805
:10014000900700200648804706480047FEE7FEE784
:10015000FEE7FEE7FEE7FEE7FEE7FEE7FEE7FEE777
:100160004323000831010008002400F02FFB4FF466
:10017000E13000F052F84FF4E13000F0A1F84FF414
:10018000E13000F037F900F04EFB02F0D8F903E05F
:100190004FF4FA7000F03BFB02F0D4FE0028F7D1D8
:1001A00010E0601C0446B0F5FA7F0BDB06A003F0FC
:1001B000DBFD02F095FF002402F044F94FF4FA70E1
:1001C00000F025FBEDE70000CFF26F6E656E657401
:1001D000C6BDCCA8B7A2CBCDCAFDBEDD3A0D0A0084
:1001E00070B504460D46E1B2C94801F073FF00BF87
:1001F000C748008800F080000028F9D0204670BD74
:1002000000BFC348008800F020000028F9D0C04893
:10021000001D0088C0F30800704710B586B0044682
:100220000121042000F0A8FE0121880300F0A4FEB3
:1002300018208DF817004FF40070ADF8140003205B
:100240008DF8160005A9B34800F0DAFB04208DF8FC
:1002500017000002ADF8140003208DF8160005A960
:10026000AC4800F0CDFB01940020ADF810000C204C
:10027000ADF80E000020ADF80C00ADF80A00ADF8A6
:10028000080001A9A24801F02CFE0121A04801F0BC
:10029000B4FE012240F225519D4801F0BAFE25200E
:1002A0008DF8000001208DF8030000208DF801007A
:1002B00002208DF80200684600F0D9FA06B010BDA1
:1002C00010B586B004460121042000F055FE01213E
:1002D000480400F05EFE18208DF817000420ADF8E9
:1002E000140003208DF8160005A98A4800F088FB49
:1002F00004208DF817000820ADF8140003208DF8B5
:10030000160005A9834800F07BFB01940020ADF89E
:1003100010000C20ADF80E000020ADF80C00ADF878
:100320000A00ADF8080001A97B4801F0DAFD0121BF
:10033000794801F062FE012240F22551764801F031
:1003400068FE26208DF8000001208DF803000020B3
:100350008DF801008DF80200684600F088FA06B0BA
:1003600010BD2DE9F04107460C46154600260DE06C
:1003700014F8011B384601F0ADFE00BF402138469D
:1003800001F016FF0028F9D0701C86B2AE42EFDBF8
:10039000BDE8F0810FB430B5CBB0054601AC50A834
:1003A00000904FF4947101A8009B4F9A03F000FD58
:1003B000002000900BE014F8011B284601F08AFE93
:1003C00000BF4021284601F0F3FE0028F9D0207834
:1003D0000028F0D14BB030BC5DF814FB10B540F2F2
:1003E00025514B4801F0FAFE18B12021484801F090
:1003F000ECFE10BD10B586B004460121082000F0C7
:10040000BBFD0121880400F0C4FD4FF48060ADF80D
:10041000140003208DF8160018208DF8170005A988
:100420003E4800F0EDFA4FF40060ADF814000420EF
:100430008DF8170005A9394800F0E2FA27208DF859
:10044000000000208DF8010003208DF8020001203B
:100450008DF80300684600F00AFA01940020ADF818
:100460000800ADF80A00ADF80C00ADF810000C2043
:10047000ADF80E0001A92A4801F033FD012240F237
:100480002551274801F0C5FD0121254801F0B5FDA2
:1004900006B010BD10B540F22551214801F09EFE76
:1004A00010B31F4801F01AFEC4B21E48008800F4C1
:1004B0000040C8B91B48008800F4804060B10A2C95
:1004C00003D000201749088020E01648008840F437
:1004D00000401449088019E00D2C06D1114800880D
:1004E00040F480400F49088010E00E480088C0F3B7
:1004F0000D000D490C540B480088401C0949088028
:1005000008460088C72801DD0020088010BD0000D3
:10051000003801400008014000440040000C014048
:1005200000480040000000204400002010B564484E
:10053000006820F47040624908600846006840F492
:100540004050086000205F490860142000F05FF907
:1005500001205D49C1F8AC011E2000F040F910BD3A
:1005600010B500245648006820F4704054490860D3
:100570000846006840F40040086004E0601CC4B213
:10058000012000F02CF94F488038006808B1642C35
:10059000F4DB642C01DB012010BD002404E0601CAE
:1005A000C4B2012000F01BF946488038006808B941
:1005B000642CF4DB642C01DB0120EDE70020EBE789
:1005C00010B5002404E0601CC4B2012000F007F95B
:1005D0003C488038006808B1642CF4DB002404E057
:1005E000601CC4B2012000F0FAF836488038006878
:1005F00008B9642CF4DB282000F0F1F83148803889
:10060000006808B1012010BD0020FCE770B500248F
:10061000002506E06006040EFFF7D2FF0443681CC5
:10062000C5B2082DF6DB204670BD7CB505460E46EA
:10063000FFF77CFFFFF794FFF8B9002405E0FFF710
:10064000E5FF0DF80400601CC4B2052CF7DB9DF833
:1006500000009DF8011008449DF8021008449DF820
:10066000031008449DF80410884208D19DF800004A
:1006700030709DF80200287001E001207CBD002050
:10068000FCE708B50121042000F076FC4FF400607F
:10069000ADF8000010208DF8030003208DF8020053
:1006A00069460748001F00F0ABF94FF400610448A9
:1006B000001F00F052FAFFF739FFFFF751FF08BDA6
:1006C00004080140AC012142000021427FB50546EB
:1006D0000C460121022000F05CFCADF80850ADF89A
:1006E00004400020ADF80A00ADF8060001A9344826
:1006F00000F07AFD01221146314801F0ECF81D208E
:100700008DF8000000208DF8010003208DF8020014
:1007100001208DF80300684600F0A9F8012128485F
:1007200001F0BEF87FBD10B50121254801F081FB25
:1007300018B10121224801F08DFB10BD30B589B000
:1007400005460C460121022000F023FC012109206E
:1007500000F012FC01211B4800F023FA2020ADF824
:10076000200018208DF8230003208DF8220008A90E
:10077000154800F045F9ADF81850ADF814400020C8
:10078000ADF81A00ADF8160005A90D4800F02CFDD3
:100790007020ADF804000120ADF806000020ADF88F
:1007A0000C0001A9064800F09EFD0821044801F054
:1007B000B0F90121024801F073F809B030BD000022
:1007C0000004004000081A00000C01404FF0E02037
:1007D000006920F004004FF0E0210861704700EB51
:1007E000C0014FF0E02251611146096941F0010159
:1007F000116100BF4FF0E021096901F48031002947
:10080000F8D000214FF0E02211619161704700B5EE
:10081000034603E04FF47A70FFF7E1FF181EA3F1DF
:100820000103F7D100BD10B50121042000F0A4FBA5
:100830000121082000F0A0FB0121102000F09CFB0A
:100840000121202000F098FB0121402000F094FBC2
:100850000121802000F090FB0121080200F08CFBB8
:1008600010BD000031490143314A1160704770B535
:10087000002100230F22C47804B32D4C246804F413
:10088000E064C4F5E064210AC1F10403CA4044787D
:1008900004FA03F18478144021430901254C0678B9
:1008A000A155047804F01F050124AC4005786D11B2
:1008B000AD0005F1E025C5F8004109E0047804F039
:1008C0001F050124AC401C4D0678761145F82640E2
:1008D00070BD1A4A0A400243154B1B1F1A6070472D
:1008E00039B1134A121D12680243114B1B1D1A60C5
:1008F00006E00F4A121D126882430D4B1B1D1A6041
:100900007047042808D14FF0E021096941F0040143
:100910004FF0E022116107E04FF0E021096921F07A
:1009200004014FF0E0221161704700000000FA0559
:100930000CED00E000E400E080E100E080FFFF1F3C
:1009400010B50446CC48844208D10121042000F0AF
:100950002DFB0021042000F029FB46E0C74884421B
:1009600008D10121082000F021FB0021082000F01F
:100970001DFB3AE0C248844208D10121102000F05A
:1009800015FB0021102000F011FB2EE0BD48844231
:1009900008D10121202000F009FB0021202000F0D7
:1009A00005FB22E0B848844208D10121402000F034
:1009B000FDFA0021402000F0F9FA16E0B348844225
:1009C00008D10121802000F0F1FA0021802000F000
:1009D000EDFA0AE0AE48844207D10121801500F00B
:1009E000E5FA0021A01500F0E1FA10BD10B50121D3
:1009F000084600F0DBFA0021012000F0D7FA10BD14
:100A00002DE9F041024600250026002000230024A5
:100A1000002791F803C00CF00F0591F803C00CF00B
:100A2000100CBCF1000F03D091F802C04CEA050590
:100A300091F800C0BCF1000F31D0146800202BE009
:100A40004FF0010C0CFA00F3B1F800C00CEA0306F9
:100A50009E4220D183004FF00F0C0CFA03F7BC43E9
:100A600005FA03FC4CEA040491F803C0BCF1280F1A
:100A700006D14FF0010C0CFA00FCC2F814C00AE0D9
:100A800091F803C0BCF1480F05D14FF0010C0CFAEE
:100A900000FCC2F810C0401C0828D1D31460B1F883
:100AA00000C0BCF1FF0F34DD546800202EE000F1DF
:100AB000080C4FF0010808FA0CF3B1F800C00CEA7A
:100AC00003069E4221D183004FF00F0C0CFA03F76E
:100AD000BC4305FA03FC4CEA040491F803C0BCF1E2
:100AE000280F05D100F1080C08FA0CF8C2F81480A0
:100AF00091F803C0BCF1480F07D100F1080C4FF08A
:100B0000010808FA0CF8C2F81080401C0828CED35F
:100B10005460BDE8F0814FF6FF71018002218170C1
:100B20000421C17070470246002093680B400BB14E
:100B3000012000E0002070470146886880B27047BD
:100B400002460020D3680B400BB1012000E00020DA
:100B500070470146C86880B27047016170474161C3
:100B600070470AB1016100E041617047C1607047A0
:100B70004FF480320A4382618161826182698269B5
:100B8000704702460020434B18684FF680731840A8
:100B900040EA021008433F4B186070473E49C86165
:100BA0007047F0B50A46002300240021002500F01C
:100BB0000046B6F1004F02D1364EF16901E0354EE4
:100BC0007168C0F3034583B200F44016B6F5401FC8
:100BD00008D121F070612F4E766826F070662D4F97
:100BE0007E6012E000F48016B6F5801F06D1032661
:100BF00006FA05F4A14341F0706106E0460D3601A6
:100C000003FA06F6B14341F0706122B1460D360198
:100C100003FA06F6314300F00046B6F1004F02D168
:100C20001C4EF16101E01B4E7160F0BD30B5002239
:100C30008B071C0F0F2303FA04F2164B08338C109A
:100C400053F824309343134C08348D1044F8253066
:100C500023468C1053F824308C07240F00FA04F438
:100C600023430C4C08348D1044F8253030BD0A491C
:100C7000DC3108607047000000080140000C0140B2
:100C8000001001400014014000180140001C014008
:100C9000002001400000014000002042DF480068C1
:100CA00040F00100DD49086008464068DC49084022
:100CB000DA49486008460068DA490840D7490860C0
:100CC0000846006820F4802008600846406820F448
:100CD000FE0048604FF41F0088607047CF490968E4
:100CE00021F48031CD4A11601146096821F4802138
:100CF0001160B0F5803F03D0B0F5802F0ED106E033
:100D0000C649096841F48031C44A116007E0C3490B
:100D1000096841F4A021C14A116000E000BF00BF92
:100D2000704710B501460022002300204A11012A15
:100D300002D1BA4C236806E0022A02D1B74C236ADA
:100D400001E0B64C636A01F01F02012494401C408C
:100D50000CB1012000E0002010BD38B5002000904B
:100D60000024002500BF3120FFF7DBFF0546009877
:100D7000401C00900098B0F5A06F01D0002DF2D07B
:100D80003120FFF7CEFF08B1012400E00024204607
:100D900038BD01460020A14A106820F0F80040EA62
:100DA000C10010607047A0490860704702460020EB
:100DB0009A4B586820F47C1042EA01031843974B81
:100DC0005860704798490866704701460020934A6A
:100DD000506820F003000843506070478F48406817
:100DE00000F00C007047014600208C4A506820F04B
:100DF000F00008435060704701460020874A506861
:100E000020F4E06008435060704701460020834AA8
:100E1000506820F4605040EAC1005060704729B12A
:100E20007E4A527A02437D4B5A7204E07B4A527AE0
:100E300082437A4B5A7270477B49D83108607047B9
:100E400001460020754A506820F440400843506035
:100E500070470021714A20321170704A82F82010C8
:100E6000012802D004280AD104E001216B4A203273
:100E7000117005E00521694A2032117000E000BFC1
:100E800000BF70476949086070476449096A0143B7
:100E9000624A11627047654944390860704730B54D
:100EA00000210022002400235C4D6D6805F00C0138
:100EB00021B1042905D0082923D105E05C4D056046
:100EC00022E05B4D05601FE0544D6D6805F4701223
:100ED000524D6D6805F48034022505EB92421CB931
:100EE000544D554305600BE04C4D6D6805F40035DD
:100EF0001DB1504D5543056002E04D4D5543056011
:100F000002E04B4D056000BF00BF444D6D6805F029
:100F1000F0010909484D6B5C0568DD4045603F4DB7
:100F20006D6805F4E061090A434D6B5C4568DD407E
:100F300085603A4D6D6805F46051C90A3E4D6B5CA1
:100F40004568DD40C560354D6D6805F44041890B4D
:100F50003A4D6B5CC568B5FBF3F5056130BD29B151
:100F60002E4A526902432D4B5A6104E02B4A5269C2
:100F700082432A4B5A61704729B1284A9269024339
:100F8000264B9A6104E0254A92698243234B9A6179
:100F9000704729B1214AD2690243204BDA6104E04B
:100FA0001E4AD26982431D4BDA61704729B11B4A40
:100FB000D2680243194BDA6004E0184AD2688243CF
:100FC000164BDA60704729B1144A12690243134B79
:100FD0001A6104E0114A12698243104B1A6170478A
:100FE00012494039086070470F49C86470470B497F
:100FF000C87170470948406A40F0807007494862EC
:10100000704701460020054A92680A400AB1012053
:1010100000E00020704701498872704700100240CC
:101020000000FFF8FFFFF6FE00004242800442424B
:1010300000127A0000093D0002000020120000208A
:1010400010B50446FE48844208D10121C014FFF7C0
:10105000ADFF0021E014FFF7A9FFC4E0B4F1804F19
:1010600008D101210846FFF7AEFF00210120FFF75C
:10107000AAFFB8E0F348844208D101210220FFF71B
:10108000A2FF00210220FFF79EFFACE0EE48844261
:1010900008D101210420FFF796FF00210420FFF76B
:1010A00092FFA0E0E948844208D101210820FFF71F
:1010B0008AFF00210820FFF786FF94E0E44884427D
:1010C00008D101211020FFF77EFF00211020FFF73B
:1010D0007AFF88E0DF48844208D101212020FFF711
:1010E00072FF00212020FFF76EFF7CE0DA48844287
:1010F00008D101214014FFF759FF00216014FFF7C8
:1011000055FF70E0D548844209D10121C804FFF79A
:101110004DFF00214FF40020FFF748FF63E0D04867
:10112000844209D101210805FFF740FF00214FF457
:101130008010FFF73BFF56E0CA48844209D10121E5
:101140004805FFF733FF00214FF40010FFF72EFF93
:1011500049E0C548844208D101214020FFF733FF10
:1011600000214020FFF72FFF3DE0C048844208D116
:1011700001218020FFF727FF00218020FFF723FFB8
:1011800031E0BB48844208D101218015FFF71BFFE5
:101190000021A015FFF717FF25E0B648844209D1CA
:1011A00001210804FFF702FF00214FF48030FFF710
:1011B000FDFE18E0B048844209D101214804FFF740
:1011C000F5FE00214FF40030FFF7F0FE0BE0AB48D6
:1011D000844208D101218804FFF7E8FE00214FF482
:1011E0008020FFF7E3FE10BD00220288944B984256
:1011F0000ED0994B98420BD0B0F1804F08D0914B54
:10120000984205D0904B984202D0904B984204D11E
:101210004FF68F731A404B881A438D4B984207D074
:101220008C4B984204D04FF6FF431A40CB881A43A8
:1012300002808B8883850B880385814B98420BD075
:10124000854B984208D08B4B984205D08A4B9842E8
:1012500002D08A4B984201D10B7A03860123838204
:10126000704770B5002400220023058C4FF6FE76EF
:1012700035400584028C8388048B4FF68F752C4093
:10128000B51E2C400D882C43751E2A400D892A431B
:101290004D882A436A4DA8420BD06F4DA84208D012
:1012A000744DA84205D0744DA84202D0734DA84297
:1012B00013D14FF6F7752A404D892A434FF6FB7537
:1012C0002A408D882A434FF6FF652B404FF6FF5585
:1012D0002B408D892B43CD892B4383800483CD887C
:1012E0008586028470BD70B5002400220023058C21
:1012F0004FF6EF7635400584028C8388048B48F6E0
:10130000FF752C404FF6FF452C400D884FF6FF76B9
:1013100006EA05252C434FF6DF752A400D8906EABB
:1013200005152A434D8806EA05152A43444DA8426F
:1013300002D0494DA8421DD14FF67F752A404D89F4
:101340004FF6FF7606EA05152A434FF6BF752A4089
:101350008D8806EA05152A434FF6FF352B404FF2DC
:10136000FF752B408D8906EA85052B43CD8906EA5A
:1013700085052B4383800483CD880587028470BD57
:1013800070B5002400220023058C4FF6FF6635401F
:101390000584028C8388848B4FF68F752C404FF622
:1013A000FC752C400D882C434FF6FF552A400D89C3
:1013B0004FF6FF7606EA05252A434D8806EA0525FD
:1013C0002A431F4DA84202D0234DA8421DD14FF2FF
:1013D000FF752A404D894FF6FF7606EA05252A4318
:1013E0004FF6FF352A408D8806EA05252A434EF63A
:1013F000FF752B404DF6FF752B408D8906EA0515CC
:101400002B43CD8906EA05152B4383808483CD8841
:101410008587028470BD70B5002200230024058CEE
:101420004EF6FF7635400584038C8488828B48F61F
:10143000FF752A404FF6FF452A400D8820E0000046
:10144000002C01400004004000080040000C004057
:10145000001000400014004000340140004C0140E6
:10146000005001400054014000180040001C0040A2
:10147000002000400040014000440140004801407D
:101480004FF6FF7606EA05252A434DF6FF752B40F9
:101490000D8906EA05352B434D8806EA05352B43B1
:1014A000FA4DA84202D0FA4DA84208D14BF6FF757A
:1014B0002C408D894FF6FF7606EA85152C438480F3
:1014C0008283CD88A0F84050038470BD828B4FF298
:1014D000FF331A408283828B4FF6FF7303EA0123A6
:1014E0001A4382837047F0B50C461546002200214E
:1014F0000026078C4EF6FF7C07EA0C070784828BD8
:10150000018C4FF6FF7707EA043640F6FF473A4072
:101510004FF6FF7707EA05273A434FF6FF7707EACA
:1015200003373A43D94FB8420ED0D94FB8420BD007
:10153000B0F1804F08D0D74FB84205D0D64FB8424F
:1015400002D0D64FB84206D14DF6FF77394046F467
:101550008057394305E047F6FF57394044F4805738
:10156000394382830184F0BD828B4FF6F3731A40B6
:101570008283828B0A4382837047F0B50C461546FE
:10158000002200210026078C4FF6FF6C07EA0C07AB
:101590000784828B018C4FF6FF7707EA04264FF60B
:1015A0000C773A404FF6FF7707EA03172F433A4389
:1015B000B64FB8420ED0B64FB8420BD0B0F1804F04
:1015C00008D0B44FB84205D0B34FB84202D0B34FA1
:1015D000B84206D14FF6FF57394046F48077394379
:1015E00005E04FF2FF57394044F480773943828356
:1015F0000184F0BD028B4FF2FF331A400283028B4D
:101600004FF6FF7303EA01231A4302837047F0B5D4
:101610000C461546002200210026078C4FF6EF7C71
:1016200007EA0C070784028B018C4FF6FF7707EA65
:10163000041640F6FF473A404FF6FF7707EA0337B4
:101640003A434FF6FF7707EA05273A438F4FB842F0
:101650000ED08F4FB8420BD0B0F1804F08D08D4FD5
:10166000B84205D08C4FB84202D08C4FB84206D158
:101670004FF6DF77394046F01007394305E04FF663
:101680005F77394044F01007394302830184F0BD8D
:10169000028B4FF6F3731A400283028B0A430283D4
:1016A0007047F0B50C46154600220021068C4FF617
:1016B000FE773E400684028B018C4FF60C7632405A
:1016C0007E1C06EA03162E433243704EB0420ED003
:1016D0006F4EB0420BD0B0F1804F08D06D4EB0428B
:1016E00005D06D4EB04202D06C4EB04206D14FF6DE
:1016F000FD76314044F00106314305E04FF6F576C2
:10170000314044F00106314302830184F0BD70B5DD
:1017100005460C465D4885420ED05D4885420BD09B
:10172000B5F1804F08D05B48854205D05A488542C4
:1017300002D05A48854200D100E000BF208850B94D
:101740002389A28861882846FFF7ABFFE1882846F5
:10175000FFF79EFF25E0208804280AD12389A2886C
:1017600061882846FFF753FFE1882846FFF742FFCC
:1017700017E0208808280AD12389A2886188284692
:10178000FFF7FBFEE1882846FFF7EEFE09E023891C
:10179000A28861882846FFF7A6FEE1882846FFF761
:1017A00095FE70BD2DE9F04105460C460026012747
:1017B000608808B9022600E00026A088012801D12F
:1017C000022700E001272088A0B92389A288618828
:1017D0002846FFF766FFE1882846FFF759FF23896F
:1017E0003A4631462846FFF712FFE1882846FFF7C0
:1017F00001FF13E02389A28861882846FFF707FFCD
:10180000E1882846FFF7F6FE23893A463146284606
:10181000FFF747FFE1882846FFF73AFFBDE8F08170
:101820000A884B881A438B881A43CB881A430B8942
:101830001A434B891A438B891A43A0F844207047F6
:101840004FF6FF71818000210180C18041800172CB
:1018500070470021018041808180C18001814181E8
:101860008181C181704700210180418001218180F7
:101870000021C18001817047002101804180818069
:10188000C18001814181818170470000002C0140AD
:10189000003401400004004000080040000C0040FB
:1018A00021B1028842F00102028004E002884FF672
:1018B000FE731A400280704731B1B0F8442042F400
:1018C0000042A0F8442005E0B0F84420C2F30E0224
:1018D000A0F8442070471AB183890B43838102E04A
:1018E00083898B43838170478182704741EA020379
:1018F000A0F8483070471AB183890B43838102E016
:1019000083898B438381704701894FF6F8721140B8
:10191000018170470A46002101894FF68F731940F3
:1019200011430181704730B504460D4629462046D3
:10193000FFF7F0FF208940F00700208130BD2DE93E
:10194000F04104460D4616461F46602D06D13B4623
:10195000012231462046FFF75AFE05E03B460122B0
:1019600031462046FFF79DFE29462046FFF7D2FF6D
:10197000208940F007002081BDE8F08130B50C4699
:1019800000210189C9B24FF6FF7505EA0325154309
:1019900025432943018130BD2DE9F04105460E461E
:1019A00017469846002443463A4631462846FFF7F4
:1019B000E5FF2C894FF6F870044044F007044FF619
:1019C0008F70044044F070042C81BDE8F081F0B5C4
:1019D00004460D4616461F463B46324629462046DB
:1019E000FFF7CCFF208940F480402081F0BD0185C5
:1019F000828270470A46002101884FF68F73194092
:101A0000114301807047F0B50C4615461E46002173
:101A1000002200230189028B038C4FF6F8773940AE
:101A200021434FF6FC473A4040F201173A434FF644
:101A3000DD773B404FF6FF7707EA06172F433B431E
:101A4000018102830384F0BD0A460021018B4FF619
:101A50008F7319401143018370470A460021018B9F
:101A600048F6FF7319404FF6FF7303EA0223194348
:101A7000018370470A460021818B4FF68F7319400E
:101A80001143818370470A460021818B48F6FF731A
:101A900019404FF6FF7303EA02231943818370470D
:101AA00021B1028842F08002028004E002884FF6F1
:101AB0007F731A400280704721B1828842F004028D
:101AC000828004E082884FF6FB731A408280704760
:101AD00021B1828842F00802828004E082884FF6B9
:101AE000F7731A408280704721B1828842F0010268
:101AF000828004E082884FF6FE731A40828070472D
:101B00000A460021018B4FF6F773194011430183F8
:101B100070470A460021018B4FF2FF7319404FF6C0
:101B2000FF7303EA02231943018370470A46002129
:101B3000818B4FF6F77319401143818370470A4632
:101B40000021818B4FF2FF7319404FF6FF7303EAB8
:101B500002231943818370470A460021018B4FF607
:101B6000FB7319401143018370470A460021018B22
:101B70004FF6FF3319404FF6FF7303EA0223194370
:101B8000018370470A460021818B4FF6FB73194091
:101B90001143818370470A460021818B4FF6FF3342
:101BA00019404FF6FF7303EA0223194381837047FC
:101BB0000A460021018B4FF67F73194011430183C0
:101BC00070470A460021018BC1F30E014FF6FF73E7
:101BD00003EA02231943018370470A460021818BDF
:101BE0004FF67F7319401143818370470A460021E5
:101BF000818BC1F30E014FF6FF7303EA02231943F1
:101C0000818370470A460021018C4FF6FD7319400D
:101C10001143018470470A460021018C4FF6F77387
:101C200019401143018470470A460021018C4FF688
:101C3000DF7319404FF6FF7303EA0213194301845F
:101C400070470A460021018C4FF67F7319404FF60A
:101C5000FF7303EA02131943018470470A46002107
:101C6000018C4FF6FF5319404FF6FF7303EA02232E
:101C70001943018470470A460021018C4FF2FF731B
:101C800019404FF6FF7303EA02231943018470479A
:101C90000A460021018C4DF6FF7319404FF6FF7381
:101CA00003EA023319430184704730B5002301244D
:101CB0008C40A3B2048C9C430484048C02FA01F58A
:101CC000ADB22C43048430BD30B5002304248C40D5
:101CD000A3B2048C9C430484048C02FA01F5ADB2D7
:101CE0002C43048430BD70B5034600200024184600
:101CF000183001258D40ACB21D8CA5431D8409B15F
:101D0000082909D100EB6100056825F07005056020
:101D10000568154305600EE00D1FC5F34E05284408
:101D2000056825F4E045056005684FF6FF7606EA8C
:101D300002263543056070BD21B1028842F00202DF
:101D4000028004E002884FF6FD731A40028070475B
:101D500021B1028842F00402028004E002884FF6BA
:101D6000FB731A400280704721B1828842F08002E2
:101D7000828004E082884FF67F731A408280704729
:101D800002884FF6F7731A40028002880A430280E5
:101D9000704782884FF68F731A40828082880A4388
:101DA0008280704702894FF6F8731A4002810289D7
:101DB0000A430281704702894FF67F731A400281FD
:101DC00002890A4302817047818470478185704788
:101DD000818670470187704781877047A0F840105F
:101DE000704702884FF6FF431A40028002880A4378
:101DF000028070470146888E70470146088F704701
:101E00000146888F70470146B1F84000704701468F
:101E1000888C70470146088D704702460020138A5F
:101E20000B400BB1012000E000207047CA43028242
:101E3000704730B50246002000230024158A05EAC9
:101E40000103958905EA010413B10CB1012000E0FA
:101E5000002030BDCA4302827047000010B504461E
:101E6000FB48844209D101218803FFF79FF8002134
:101E70004FF48040FFF79AF832E0F648844209D1E7
:101E800001214804FFF79FF800214FF40030FFF7CD
:101E90009AF825E0F048844209D101218804FFF72F
:101EA00092F800214FF48020FFF78DF818E0EB48FE
:101EB000844209D10121C804FFF785F800214FF4BD
:101EC0000020FFF780F80BE0E548844208D10121AB
:101ED0000805FFF778F800214FF48010FFF773F83A
:101EE00010BD2DE9F04786B005460E460024A246F7
:101EF00000BFA1460027B08900B100BF2F462C8A41
:101F00004CF6FF700440F08804432C82AC894EF6F6
:101F1000F3100440B08831890843718908430443B1
:101F2000AC81AC8A4FF6FF400440B0890443AC82D8
:101F300001A8FEF7B4FFC648874202D1DDF810A021
:101F400001E0DDF80CA0A88900F4004040B10AEBE4
:101F5000CA0000EB0A1031684900B0FBF1F807E055
:101F60000AEBCA0000EB0A1031688900B0FBF1F8F7
:101F70006420B8FBF0F004012009642101FB108902
:101F8000A88900F4004040B1322000EBC900B0FB4A
:101F9000F1F000F00700044308E0322000EB0910E4
:101FA0006421B0FBF1F000F00F0004432C8106B077
:101FB000BDE8F0874FF41651016000218180C18097
:101FC00001810C21418100218181704710B50246B9
:101FD0000020108A4FF2FF0318400B884C882343DF
:101FE0008C882343CC8823431843108210BD0021E2
:101FF000018041808180C180704721B1828942F493
:102000000052828104E082894DF6FF731A4082817A
:102010007047F0B50346002400260025002040F656
:102020006A17B94200D100BF1846C1F3421401F04B
:102030001F06012707FA06F5012C01D10C3004E038
:10204000022C01D1103000E014301AB107682F4380
:10205000076002E00768AF430760F0BD1AB1838AEA
:102060000B43838202E0838A8B4383827047028A18
:102070004FF6F0731A400282028A0A4302827047C6
:1020800082894FF2FF731A40828182890A438281DA
:10209000704721B1828942F00202828104E0828984
:1020A0004FF6FD731A4082817047028A4FF6DF7344
:1020B0001A400282028A0A430282704721B1028AD0
:1020C00042F48042028204E0028A4BF6FF731A4017
:1020D00002827047C1F308028280704701468888F7
:1020E000C0F308007047818941F001018181704788
:1020F000028BD2B20283028B42EA01220283704732
:10210000028B02F47F420283028B0A4302837047F0
:1021100021B1828A42F02002828204E0828A4FF654
:10212000DF731A408282704721B1828A42F0100226
:10213000828204E0828A4FF6EF731A4082827047EF
:1021400021B1828A42F00802828204E0828A4FF63C
:10215000F7731A408282704721B1828942F40042AB
:10216000828103E08289C2F30E028281704721B12D
:10217000828A42F40062828204E0828A4FF2FF7314
:102180001A4082827047828A4FF6FB731A4082821D
:10219000828A0A438282704721B1828A42F0020217
:1021A000828204E0828A4FF6FD731A408282704771
:1021B00002460020B1F5007F00D100BF13880B401C
:1021C0000BB1012000E00020704701F40072B2F56D
:1021D000007F00D100BFCA430280704770B502463D
:1021E000002400230025002040F66A16B14200D1E9
:1021F00000BFC1F3421501F01F03012606FA03F3E5
:10220000012D02D19689334006E0022D02D1168AB3
:10221000334001E0968A33400C12012606FA04F49A
:102220001688344013B10CB1012000E0002070BDCD
:1022300010B50022002340F66A14A14200D100BF6D
:102240000A1201249440A3B2DC43048010BD0000B4
:10225000003801400044004000480040004C00406D
:10226000005000400CB50020019000906C480068C0
:1022700040F480306A49086000BF6948006800F493
:10228000003000900198401C0190009818B9019806
:10229000B0F5A06FF1D16248006800F4003010B1D1
:1022A0000120009001E0002000900098012843D117
:1022B0005C48006840F010005A4908600846006811
:1022C00020F0030008600846006840F00200086043
:1022D000534840685249486008464068486008468C
:1022E000406840F4806048600846406820F47C10F4
:1022F00048600846406840F4E810486008460068B6
:1023000040F08070086000BF4548006800F0007031
:102310000028F9D04248406820F003004049486056
:102320000846406840F00200486000BF3C484068F2
:1023300000F00C000828F9D10CBD10B5FFF792FF92
:1023400010BD10B53648006840F0010034490860FF
:1023500008464068344908403149486008460068EA
:10236000324908402E4908600846006820F4802061
:1023700008600846406820F4FE0048604FF41F00E3
:102380008860FFF7DAFF4FF000602949086010BD50
:1023900010B5002100200022214B5B6803F00C01E6
:1023A00021B1042906D0082928D107E0214B224C6D
:1023B000236027E01F4B204C236023E0184B5B6811
:1023C00003F47010164B5B6803F48032022303EBB6
:1023D000904022B9194B4343174C23600DE0104B3A
:1023E0005B6803F4003323B1144B4343124C236066
:1023F00003E0104B4343104C236003E00D4B0E4CA5
:10240000236000BF00BF064B5B68C3F303130C4C93
:10241000E15C094B1B68CB40074C236010BD0000FA
:1024200000100240002002400000FFF8FFFFF6FE0F
:1024300008ED00E000127A001800002000093D00BD
:102440001C00002010B58021864801F0F8F800201B
:102450008549088010BD8448008808B9012070476C
:102460008148008881490988884203D100207E493B
:102470000880F4E77C4800887C4908800120EEE76A
:102480002DE9F04104460D46C826204601F00AF920
:1024900087B23A4621467648FDF763FF0FE0FFF723
:1024A000DAFF48B929466F4801F0E0F820B1FFF79C
:1024B000C9FF0020BDE8F0810A20FEF7A8F9301E10
:1024C000A6F10101CEB2EAD10120F3E730B589B01F
:1024D00004460D46FFF7B6FF2A4666A101A801F0A3
:1024E00053FC68A101A8FFF7CBFF20B92A4621467B
:1024F0005F48FDF736FF09B030BD70B505460024D2
:1025000000BFFFF7A8FF80B95FA1564801F0AEF801
:10251000044654B13A21204601F0BAF8044614B1F9
:10252000641C204670BD0020FCE70520FEF76FF913
:10253000281EA5F101018DB2E3D100BFF2E708B575
:1025400001210420FEF718FD10208DF80300ADF8DE
:10255000000003208DF8020069464D48FEF750FA4E
:10256000002210214A48FEF7FCFAFA20FEF74FF944
:10257000012210214648FEF7F4FA4FF4FA70FEF7F4
:1025800046F9FFF75FFF43A14448FDF703FF03E06F
:102590004FF4FA70FEF73BF941A142A0FFF770FF3C
:1025A0000028F5D141A13D48FDF7F4FE03E04FF4CA
:1025B000FA70FEF72CF93AA13FA0FFF761FF00285F
:1025C000F5D141A13548FDF7E5FE03E04FF4FA707F
:1025D000FEF71DF932A140A0FFF752FF0028F5D108
:1025E00041A12E48FDF7D6FE03E04FF4FA70FEF746
:1025F0000EF940A141A0FFF743FF0028F5D147A104
:102600002648FDF7C7FE03E04FF4FA70FEF7FFF827
:1026100046A148A0FFF734FF0028F5D14FA11F487D
:10262000FDF7B8FE08BD10B540F225511048FFF780
:10263000D5FDB0B10C480088802802D300200A499B
:1026400008800B48001D0088C1B207480288008836
:10265000401C054B18800348815420210448FFF793
:10266000B4FD10BD0C0100202C0000202E00002025
:102670000044004041542B43495053454E443D25AE
:10268000640D0A003E0000004950442C0000000088
:1026900000080140312E2041540D0A00003801404D
:1026A0004F4B000041540D0A00000000322E204321
:1026B000574D4F44450D0A0041542B43574D4F444D
:1026C000453D310D0A000000332E2041542B435765
:1026D000444843500D0A000041542B43574448439B
:1026E000503D312C310D0A00342E2043574A4150C1
:1026F0000D0A0000474F54204950000041542B431D
:10270000574A41503D224D7957696669222C223142
:1027100032333435363738220D0A0000352E204347
:10272000495053544152540D0A000000434F4E4E3D
:102730004543540041542B43495053544152543D56
:1027400022544350222C223138332E3233302E344F
:10275000302E3339222C3837360D0A00362E2045DC
:1027600053503832363620496E6974204F4B0D0A6B
:102770000000000070B504460E460025206898B998
:1027800001202073304602F065F820602068E0B137
:1027900000206060A66003E00020216848556D1CA1
:1027A000A068A842F8D810E00220207303E00020BF
:1027B000216848556D1CA068A842F8D800206060C8
:1027C000A068B04201D20020206070BD10B5044660
:1027D000207B012802D1206802F014F8002020603C
:1027E0006060A060207310BD0146087870472DE935
:1027F000F0478046894617461C46404600F052FF87
:10280000C5B2484600F04EFFC6B238212046FFF759
:10281000B1FF206810B90120BDE8F08710202168C1
:1028200008706068401C606005F10D00304421684C
:1028300048706068401C6060002021688870032038
:102840002168C8706068801C60602168081D0322D0
:10285000FEA100F02EFF6068C01C606001202168AE
:10286000C8716068401C6060402021680872606820
:10287000401C6060380A2168487221688F72606865
:10288000801C606000202168C87221680D73606838
:10289000801C6060216801F10D002A46414600F06D
:1028A00008FF606828446060002105F10D0022687F
:1028B0001154401C226816546068801C60602168B6
:1028C0000F3148193246494600F0F3FE6068304443
:1028D00060600020A0E72DE9F04780468946174652
:1028E0001C46404600F0DEFEC5B2484600F0DAFE67
:1028F000C6B238212046FFF73DFF206810B90120FD
:10290000BDE8F0871020216808706068401C606096
:1029100005F10F003044216848706068401C606019
:1029200000202168887003202168C8706068801CBE
:1029300060602168081D0322C4A100F0BAFE60682F
:10294000C01C606001202168C8716068401C606024
:10295000C020216808726068401C6060380A2168E5
:10296000487221688F726068801C60600020216856
:10297000C872216808736068801C6060002021684C
:10298000487321688D736068801C6060216801F164
:102990000F002A46414600F08CFE606828446060C3
:1029A000002105F10F0022681154401C22681654C2
:1029B0006068801C606021681131481932464946C0
:1029C00000F077FE606830446060002098E70146C0
:1029D000C878704770B503460024002500BF01F099
:1029E0007F05C90909B145F080051046561CB2B2F1
:1029F0001D54641C09B1052CF1DB501E80B2024647
:102A000070BDF0B5034601240026002500200860B3
:102A100000BF1046571CBAB21D5C05F07F0708685E
:102A200007FB04000860E401761C042E02D94FF075
:102A3000FF30F0BD05F080000028EAD11046F8E72D
:102A40002DE9F84F81460D4617461E460A9C002088
:102A50000090484600F026FE00F0FF08022E03D149
:102A600017B90120BDE8F88F022E08D1384600F0D2
:102A700019FE824651462046FFF77CFE04E005F130
:102A800018012046FFF776FE206808B90220E9E722
:102A900080216268501C606020688154B9F1000F89
:102AA0003ED0022E06D1384600F0FCFD0C30284402
:102AB000009003E005F1080040440090A1888AB22C
:102AC00020680099FFF786FF616808446060C021B4
:102AD0006268501C60602068815400216268501C4C
:102AE0006060206881546168481C6060206800F85C
:102AF0000180D4E9001288184246494600F0D9FD09
:102B000060684044606055216268501C60602068C5
:102B10008154AA216268501C60602068815425E0BD
:102B2000022E06D1384600F0BDFD0A302844009040
:102B300001E0A81D0090A1888AB220680099FFF7E3
:102B400049FF61680844606040216268501C606011
:102B50002068815455216268501C6060206881544F
:102B6000AA216268501C6060206881546168481C1A
:102B7000606020684654022E3AD1384600F092FD3B
:102B800000F0FF0A4FF0000B00216268501C6060EB
:102B9000206881546168481C6060206800F801A0CA
:102BA0000AE017F80B106268501C606020688154BE
:102BB0000BF1010000F0FF0BD345F2DB290E626838
:102BC000501C606020688154C5F307416268501C46
:102BD000606020688154C5F307216268501C606002
:102BE000206881546268501C6060206885540BE046
:102BF000C5F307216268501C6060206881546268D8
:102C0000501C60602068855400202BE72DE9F05FA0
:102C10000746884616461C46384600F043FD801C91
:102C200000EB060A384600F03DFD00F0FF090025E4
:102C3000384600F037FD401D30441FFA80FB1FB1BD
:102C4000B8F1000F00D02EB9012001E0454450003A
:102C5000BDE8F09F59462046FFF78CFD206808B973
:102C60000220F2E730216268501C606020688154C5
:102C7000A1888AB251462068FFF7ACFE616808441B
:102C8000606000216268501C606020688154626846
:102C9000501C6060206800F8029007E0795D62686F
:102CA000501C606020688154681C85B24D45F5DB7E
:102CB000002508E018F805106268501C6060206864
:102CC0008154681C85B2B542F4D30020BDE72DE9DC
:102CD000F84305460E46174699460024002000900A
:102CE00080462046641C285C302802D00120BDE8C4
:102CF000F883A2B269462846FFF783FE0446601CAB
:102D000008B90220F3E7601C285C295D40EA01282D
:102D1000A41C08F1010001F09DFD3060306808B985
:102D20000320E4E708F10101306800F088FC29196C
:102D30004246306800F06AFC444408F10200009901
:102D4000081A00900098401C01F084FD3860386833
:102D500020B9306801F056FD0420C8E738680099B2
:102D6000491C00F06CFC29193868009A00F04EFCF0
:102D7000009804440098C9F800000020B7E72DE946
:102D8000F84305460E4617469846DDF82090002089
:102D9000009000242046641C285CA02802D001205A
:102DA000BDE8F883A2B269462846FFF72AFE04462A
:102DB000601C08B90220F3E7601C285C295D40EA2A
:102DC00001203880A41C3988481C01F043FD306084
:102DD000306808B90320E3E73A88511C306800F0F6
:102DE0002EFC3A882919306800F010FC3888044419
:102DF000285D0106601C285C41EA0041A01C285C9B
:102E000041EA0020E11C695C0843C9F80000241D68
:102E1000D9F80010481C01F01DFDC8F80000D8F8D2
:102E2000000020B9306801F0EDFC0420B8E7D9F8C3
:102E30000020511CD8F8000000F001FC2919D9F835
:102E40000020D8F8000000F0E1FBD9F800000444AD
:102E50000020A5E72DE9F04780460E4691461D4625
:102E6000089C70190DB1062100E002214718791D58
:102E70002046FFF77FFC206810B90120BDE8F087ED
:102E8000B0216268501C606020688154A1888AB2B9
:102E900039462068FFF79EFD616808446060311282
:102EA0006268501C6060206881546268501C6060D9
:102EB00020688654D4E9001288183246414600F052
:102EC000A5FB60683044606015B3290E6268501C31
:102ED000606020688154C5F307416268501C6060DF
:102EE00020688154C5F307216268501C6060206827
:102EF00081546268501C606020688554D4E90012D7
:102F000088182A46494600F081FB606828446060C2
:102F10000020B3E710B5044602212046FFF72AFC43
:102F2000206808B9012010BDC0216268501C606093
:102F30002068815400216268501C606020688154C0
:102F40000020F0E77FB500200090019002900390F0
:102F50000125B7A3BEA2C1A1CB48FDF71BFA6B4662
:102F60002A02B3A1BAA0FFF742FC002858D1019A67
:102F700091B20098FFF7AAFAFA20FFF7BEFA0446CA
:102F8000002C49D02046FFF72FFC202844D12046B2
:102F9000FFF71DFD0A2839D2DFE800F0050B1015F8
:102FA0001A1F24292E33B9A1B748FDF7F3F90025DC
:102FB00031E0BBA1B448FDF7EDF92CE0BFA1B24868
:102FC000FDF7E8F927E0C6A1AF48FDF7E3F922E0F5
:102FD000CBA1AD48FDF7DEF91DE0D2A1AA48FDF76F
:102FE000D9F918E0D6A1A848FDF7D4F913E0DCA17F
:102FF000A548FDF7CFF90EE0E1A1A348FDF7CAF916
:1030000009E0E8A1A048FDF7C5F904E0EFA19E485A
:10301000FDF7C0F900BF00BF6846FFF7D7FB03E02C
:10302000F1A19948FDF7B6F915B1012004B070BDC2
:103030000020FBE730B5A3B00446152022903520D0
:1030400021901525802101A800F0F9FA012080F3D4
:10305000108800BF21A922A8FDF7E7FA002080F31D
:10306000108800BF9DF884309DF88820E7A186482D
:10307000FDF790F9E7A000882080802101A800F0EA
:10308000DEFA9DF88820E4A101A800F07DFE01A9E8
:10309000204600F0DFFA802101A800F0D0FA9DF868
:1030A0008420E0A101A800F06FFE01A9204600F0F5
:1030B000D1FA802101A800F0C2FA2A46DCA101A8B9
:1030C00000F062FE01A9204600F0C4FADBA1204610
:1030D00000F0C0FA204600F0E5FAC0B223B030BDDF
:1030E00030B5A5B000202190229023902490002498
:1030F0000025D3A16448FDF74DF9802101A800F017
:103100009EFA01A8FFF796FF0446002C26D021A8BE
:1031100003230022214600904DA0FFF791FCC8B97F
:1031200008E001A8415D229A501C22902198815408
:10313000681C05B2A542F4DB229A91B22198FFF7F0
:10314000C5F9C6A15048229AFDF724F921A8FFF736
:103150003DFB03E0C5A14C48FDF71CF925B030BD8F
:1031600070B58AB004460020069007900890099038
:103170000590049003900290002600252046FFF75A
:1031800033FB0646902E1DD0A02E31D102A803ABF2
:1031900004AA05A900902046FFF7F1FD054685B970
:1031A00006A80090BDF81010DDE902320598FFF77F
:1031B00051FE02980090B5A13348039B059AFDF794
:1031C000E9F818E0E07855280DD12079AA280AD12D
:1031D000607908B1B6A000E0B6A00246B6A12A48C0
:1031E000FDF7D8F803E0B8A12748FDF7D3F802E0CF
:1031F0004FF0FF3500BF00BFFFF724F9681C08B986
:103200000AB070BD039800F076F9A02E0ED16DB90A
:10321000059801F0F7FA039801F0F4FA079A91B2D1
:103220000698FFF753F906A8FFF7D0FA00BFE7E7C3
:10323000397A4D435A45426A7A436D466F67367113
:103240004A524F6F6A6770467957733D000000001D
:103250003130333034393831333100004F6E654E00
:1032600065745F4465764C696E6B0D0A444556493A
:10327000443A2025732C20202020204150494B45E2
:10328000593A2025730D0A000038014054697073C3
:103290003A09C1ACBDD3B3C9B9A60D0A00000000FC
:1032A0005741524E3A09C1ACBDD3CAA7B0DCA3BA4C
:1032B000D0ADD2E9B4EDCEF30D0A00005741524E25
:1032C0003A09C1ACBDD3CAA7B0DCA3BAC9E8B1B84A
:1032D0004944BCF8C8A8CAA7B0DC0D0A0000000029
:1032E0005741524E3A09C1ACBDD3CAA7B0DCA3BA0C
:1032F000B7FECEF1C6F7CAA7B0DC0D0A0000000089
:103300005741524E3A09C1ACBDD3CAA7B0DCA3BAEB
:10331000D3C3BBA74944BCF8C8A8CAA7B0DC0D0AF0
:10332000000000005741524E3A09C1ACBDD3CAA7B4
:10333000B0DCA3BACEB4CADAC8A80D0A00000000F7
:103340005741524E3A09C1ACBDD3CAA7B0DCA3BAAB
:10335000CADAC8A8C2EBCEDED0A70D0A0000000072
:103360005741524E3A09C1ACBDD3CAA7B0DCA3BA8B
:10337000BCA4BBEEC2EBCEB4B7D6C5E40D0A0000C8
:103380005741524E3A09C1ACBDD3CAA7B0DCA3BA6B
:10339000B8C3C9E8B1B8D2D1B1BBBCA4BBEE0D0A69
:1033A000000000005741524E3A09C1ACBDD3CAA734
:1033B000B0DCA3BAD6D8B8B4B7A2CBCDC1ACBDD31C
:1033C000C7EBC7F3B0FC0D0A000000004552523AAB
:1033D00009C1ACBDD3CAA7B0DCA3BACEB4D6AAB4D7
:1033E000EDCEF30D0A0000005741524E3A09454414
:1033F000505F5061636B6574436F6E6E65637420DC
:103400004661696C65640D0A0000000025642C2586
:10341000640D0A007B0000002274656D70223A255D
:10342000642C00002268756D69223A25642C000026
:10343000226C73656E73223A256400007D000000E3
:10344000546970733A094F6E654E65745F53656ECB
:1034500064446174612D4544500D0A0053656E64E7
:103460002025642042797465730D0A005741524E3D
:103470003A094544505F4E6577427566666572202D
:103480004661696C65640D0A00000000636D646943
:10349000643A2025732C207265713A2025732C2004
:1034A0007265715F6C656E3A2025640D0A0000003C
:1034B000457272004F6B0000546970733A0953658E
:1034C0006E642025730D0A00546970733A094D65C6
:1034D0007373616765204944204572720D0A0000CC
:1034E00010B500240020FFF708F8044614B1204668
:1034F000FFF736FE10BD7FB50646002400253A21B1
:10350000304600F0C5F80446002C50D0641C05E09D
:1035100014F8012B28466D1C0DF800202078302867
:1035200002DB20783928F3DD684600F0D6F805463E
:10353000294620A000F018FC23A1304600F096F8A0
:1035400000B3012D0AD101202149087040F6C410B2
:10355000FDF75DF91FA000F007FC28E0FDB9002091
:103560001B490870012080F3108800BF40F6C4108A
:10357000FDF74DF9002080F3108800BF18A000F07F
:10358000F3FB14E019A1304600F070F838B1012DBA
:1035900006D101200E49487016A000F0E5FB06E0B8
:1035A0002DB900200A49487015A000F0DDFB7FBD51
:1035B00070470000B5C3B5BDB5C4CAFDBEDDCEAA17
:1035C00025640D0A000000006F70656E66730000D0
:1035D00030000020BAECB5C6BFAA0D0A00000000FA
:1035E000BAECB5C6B9D80D0A000000006F70656E60
:1035F00064700000C2CCB5C6BFAA0D0A000000006E
:10360000C2CCB5C6B9D80D0A0000000040EA0103DB
:103610009B0703D009E008C9121F08C0042AFAD288
:1036200003E011F8013B00F8013B521EF9D270474C
:10363000D2B201E000F8012B491EFBD270470022F4
:10364000F6E710B513460A4604461946FFF7F0FFA1
:10365000204610BD421E12F8013F002BFBD111F88D
:10366000013B02F8013B002BF9D1704730B505460C
:103670002A460B4612F8010B13F8014B08B1A04281
:10368000F8D01CB1002802D06D1CF1E7284630BDEF
:10369000CAB2401E10F8011F8A4202D00029F9D197
:1036A00000207047421C10F8011B0029FBD1801A32
:1036B000704710B5044600E0401C0378002BFBD196
:1036C00000E0401C521E04D311F8013B0370002B94
:1036D000F7D100210170204610BD70B5064600F0FC
:1036E00079FB046805460A220021304600F049F8BB
:1036F0002C6070BD30B50B4601460020202201240D
:1037000009E021FA02F59D4205D303FA02F5491BAF
:1037100004FA02F52844151EA2F10102F1DC30BDC5
:103720002DE9F05F0546002092469B4688460646F6
:10373000814640241BE0284641464746224600F089
:1037400032FA53465A46C01A914110D311461846D0
:10375000224600F019FA2D1A67EB01084F4622465F
:103760000120002100F010FA17EB00094E41201E45
:10377000A4F10104DFDC484631462A464346BDE851
:10378000F09F2DE9F04791460F46804604460026FB
:1037900014F8015B2DB100F029FA0068405DC00704
:1037A000F6D12B2D02D02D2D18D0641E4A46394655
:1037B000204600F01FFA27B13968A14201D1C7F8AD
:1037C000008071054FF002040BD54042002803DD54
:1037D00000F000FB0460A007BDE8F08746F48066B7
:1037E000E4E70028F8DA00F0F5FA04606FF0004032
:1037F000F2E72DE9FE4F804681EA0300C00F0C4638
:10380000009021F0004123F00045B8EB0200A941EF
:1038100005D24046214690461C460B46024623F000
:103820000040104347D0270DC7F30A00C3F30A51E5
:103830000290401A019040286BDAC3F3130040F461
:10384000801B0098924620B10023D2EB030A63EB61
:103850000B0B01985946C0F14002504600F094F914
:1038600006460D4650465946019A00F0ACF910EB59
:1038700008006141002487EA115284EAE7731A4381
:1038800040D0009A62B3019A012A4FEA075215DC30
:10389000001B61EB02014FF0004202EA0752CDE942
:1038A0000042001C41F5801132462B4600F000FA20
:1038B00003B0BDE8F08F40462146F9E7001B61EBFD
:1038C0000201001C41F5801300185B412018A2F58D
:1038D000001747EB030140EAD570B6196D4111E0BE
:1038E0006D084FEA360645EAC0754FEA0752001BDD
:1038F00061EB0201001C41F5801149084FEA3000DC
:103900000019514132462B4603B0BDE8F04F00F09C
:10391000C0B90098012240000023D0EB020263EB03
:10392000E073009821464FEAE074B8EB000061EBC9
:103930000401E9E783F000435BE781F0004158E7C9
:103940002DE9FE4F81EA030404F0004421F0004118
:1039500000944FF0000B23F0004350EA01045ED0C6
:1039600052EA03045BD0C3F30A54C1F30A552C4452
:10397000A4F2F3340194A0FB0254C1F3130141F407
:103980008011C3F3130343F4801301FB024400FBD3
:10399000034E840A970A44EA815447EA8357A4FBFA
:1039A000076802958D0A05FB07854FEA932C04FBF7
:1039B0000C542705029D4FEA065847EA1637B5EB27
:1039C00008056EEB070C870E920E47EA811742EA54
:1039D0008312A7FB0201B6EB0B0164EB00042B0D75
:1039E00043EA0C335E1844EB1C50DA465146E7FBC1
:1039F0000201C5F313044FEA0B3343EA14534FEAB1
:103A00000432019C43EA0603A4F10C040294009CD6
:103A1000CDE900B400F04CF903B0BDE8F08F002010
:103A20000146F9E72DE9F04D81EA030404F0004B6B
:103A300021F0004514464FF0000A23F0004150EAFF
:103A4000050220D054EA01021DD0C5F30A570246F0
:103A5000C5F31303C1F31300C1F30A5640F48015F4
:103A600043F48013A7EB0608101BD64608F2FD3876
:103A700073EB050002D308F1010801E092185B41E5
:103A8000B8F1000F03DA00200146BDE8F08D0020F8
:103A90004FF48011064684460EE0171B73EB0507B2
:103AA00005D3121B63EB050306434CEA010C4908DE
:103AB0004FEA300092185B4150EA0107EDD152EA1B
:103AC000030012D082EA040083EA0501084305D00E
:103AD000101BAB4106D20122002306E000224FF06A
:103AE000004302E06FF0010253101AEB06004CEBAA
:103AF000085110EB0A0041EB0B01BDE8F04D00F05E
:103B0000C8B8C1F30A52C1F3130140F2FF3341F4C4
:103B100080119A4202DA00200146704740F2334396
:103B20009A42A2F2334202DC524200F03CB800F06A
:103B30002BB8000030B5041E71F1000404DB4FF017
:103B40000044404264EB0101141E73F1000405DBE4
:103B50001C464FF00043524263EB0403994208BFF6
:103B6000904230BD064C074D06E0E06840F001038E
:103B700094E8070098471034AC42F6D3FCF7DCFA1F
:103B80004849000868490008202A04DB203A00FA66
:103B900002F1002070479140C2F1200320FA03F3A4
:103BA000194390407047202A04DB203A21FA02F0A2
:103BB0000021704721FA02F3D040C2F12002914067
:103BC000084319467047202A06DBCB17203A41FAF2
:103BD00002F043EAE07306E041FA02F3D040C2F19A
:103BE0002002914008431946704700000048704782
:103BF000444900082DE9F05F824600780027154609
:103C00008B460AF10104B946302801D09DB113E07A
:103C100014F8010B0127782803D0582801D045B1AA
:103C20000AE00DB1102D07D10027102514F8010B63
:103C300002E0082500E00A250026B0460EE005FB5C
:103C4000080005FB06F1012701EB10461FFA80F87A
:103C5000B6F5803F00D3B94614F8010B294600F0B1
:103C600075F80028EBDABBF1000F05D00FB1641E28
:103C700000E05446CBF80040B9F1000F06D000F048
:103C8000A9F802210160C81EBDE8F09F48EA06407D
:103C9000FAE710B5141E73F1000408DA401C41F174
:103CA000000192185B411A4301D120F0010010BDC0
:103CB0002DE9F04D92469B4611B1B1FA81F202E036
:103CC000B0FA80F220329046FFF75EFF04460F46BE
:103CD00040EA0A0041EA0B0153465A46084313D012
:103CE000114653EA010019D0C8F140025046FFF7CF
:103CF0005AFF05460E46504659464246FFF744FFD6
:103D0000084305D0012004E020463946BDE8F08D87
:103D10000020054346EAE0762C4337430A986305C2
:103D2000E40AA0EB08000022FD0A44EA47540A30E6
:103D300002D500200146E9E7010510196941DDE9D6
:103D4000084500196941BDE8F04DA2E73A2800D2C4
:103D5000303820F02002412A01D3A2F137008842F6
:103D600001D34FF0FF3070470FB4054B10B503A9D6
:103D7000044A029800F0F4F810BC5DF814FB00004F
:103D8000E1010008340000200FB4084B10B504A96D
:103D900002AA039800F0E4F8044602A9002000F00B
:103DA0002BFD204610BC5DF814FB0000F94700080D
:103DB0007CB5491E1C461546CDE90001044B6A46F8
:103DC0002146284600F076F9009A002111707CBD4A
:103DD000E3470008004870474000002002E008C8A0
:103DE000121F08C1002AFAD170477047002001E075
:103DF00001C1121F002AFBD1704700002DE9FF5FAF
:103E0000DDE90220010DDDF838B0024318D044F698
:103E10001050A1F2FF3141430D140F98012820D01A
:103E2000A5EB0B00401C5FEA000A4FF00004474E70
:103E3000DFF81C91A046504616D5CAF1000728E0CD
:103E40000F98012443A2012808D0002100980F9B5D
:103E5000C0E90021C0E90243BDE8FF9F6FEA0B0102
:103E6000F4E7CBF10000DEE7074612E0F80707D0E1
:103E70002246334640464946FFF762FD8046894662
:103E80002246334610461946FFF75AFD04460E46B1
:103E90007F10002FEAD1DDE90201BAF1000F42469E
:103EA0004B4602DAFFF74CFD01E0FFF7BBFD04468D
:103EB0000E460022284BFFF73DFE03D84FF0FF309F
:103EC000014607E00022254B20463146FFF791FCD2
:103ED000FFF717FE102409E0002C0ADB0A2200235A
:103EE000FFF71EFC019B30321A55641E50EA010296
:103EF000F2D1641C019AC4F1110314440F9A012AEF
:103F000003D0012208430DD10AE0084304D0002069
:103F10004FF0110B0F9080E7A3EB0B056D1E0DE02A
:103F20005B4504DD4FF0000205F1010504E003DA12
:103F30004FF00002A5F10105002AECD000980F997E
:103F4000C0E90231C0E9004586E7000000002440D6
:103F50000000F03F300000000000F0430000E03FB0
:103F60002DE9FF4F89B09B460446002506E0252831
:103F70000BD05A460B999047641C6D1C2078002882
:103F8000F5D10DB02846BDE8F08F0027B8460122D4
:103F9000474900E0074314F8013F203B02FA03F0D1
:103FA0000842F7D120782E2819D114F8010F47F0D4
:103FB00004072A280ED06FF02F022078A0F13001DC
:103FC00009290CD808EB880102EB410100EB01083C
:103FD000641CF2E70A98641C50F8048B0A9020785D
:103FE0000028CED0642808D0692806D075281ED0B5
:103FF0005A460B9990476D1C58E00A994FF00A09F0
:1040000001C90A91002802DA40422D2102E0390557
:1040100004D52B218DF82010012103E0F90704D0ED
:104020002021F7E78A4608AE0DE00021FAE70A9959
:104030004FF00A0901C90A91F7E74946FFF75AFB11
:10404000303106F8011D0028F7D1ADEB060000F174
:104050002009780701D44FF00108C84502DDA8EB1C
:10406000090000E000208046002706E008A85A4624
:10407000C05D0B9990476D1C7F1C5745F6DB04E033
:1040800030205A460B9990476D1CB8F10001A8F1F9
:104090000108F5DC05E016F8010B5A460B9990472C
:1040A0006D1CB9F10001A9F10109F4DC641C65E79C
:1040B000092801002DE9FF4F95B09B468946064629
:1040C00000250FE2252877D100242746F84A012150
:1040D000059400E0044316F8013F203B01FA03F089
:1040E0001042F7D130782A2811D06FF02F033078A2
:1040F000A0F13002092A16D8059A44F0020402EB16
:10410000820203EB42021044761C0590EFE759F857
:10411000042B0592002A03DA504244F4005405901F
:1041200044F00204761C30782E2816D116F8010FC0
:1041300044F004042A280DD06FF02F023078A0F14B
:104140003003092B09D807EB870302EB4303C71899
:10415000761CF3E759F8047B761C30786C280FD076
:1041600006DC4C2817D068280DD06A2814D104E04A
:10417000742810D07A280FD10DE044F400140AE01E
:1041800044F4801401E044F440147278824202D175
:1041900004F58014761C761C307866280BD013DC6E
:1041A000582877D009DC002875D04528F6D0462855
:1041B000F4D047281AD19DE118E0632835D064284F
:1041C00079D0652812D195E1702873D008DC672872
:1041D000F1D069286FD06E280DD06F2806D1B5E0D8
:1041E00073282CD0752875D0782874D05A46179922
:1041F00090476D1C75E1C4F30250022809D00328D2
:104200000DD0D9F8001004280DD00D6009F1040973
:1042100067E1D9F80010EA17C1E90052F6E7D9F8CA
:1042200000100D80F2E70D70F0E719F8041B8DF80F
:10423000001000208DF80100EA46012003E059F843
:1042400004AB4FF0FF3061074FF0000102D40DE0E6
:1042500008F101018846B9420FDA8045F8DB1AF807
:1042600008100029F4D108E008F1010188468142D4
:10427000FADB1AF808100029F6D105985B46A0EB86
:10428000080721463846179A00F094FA284400EBB4
:10429000080507E04DE029E10DE01AF8010B5A4648
:1042A00017999047B8F10108F7D25B462146384686
:1042B000179A13E142E00A220092C4F302524FF02F
:1042C000000A022A08D059F804CB032A4FEAEC71FD
:1042D0000AD00DE029E02AE009F1070121F00702E8
:1042E000F2E802C1914609E00FFA8CFC4FEAEC714A
:1042F000042A03D14FFA8CFC4FEAEC71002907DA4B
:104300000A460021DCF1000C61EB02012D2202E0E3
:10431000220504D52B228DF80420012203E0E207B8
:1043200001D02022F7E7904659E00A2102E010224E
:104330000DE010214FF0000A00910BE010224FF029
:10434000000A44F004040827009203E008224FF01A
:10435000000A0092C4F30252022A05D059F804CB95
:104360000021032A08D009E009F1070121F0070222
:10437000F2E802C1914605E01FFA8CFC042A01D143
:104380000CF0FF0C4FF00008220728D5702806D04B
:10439000009B83F0100353EA0A0305D00EE040228D
:1043A0008DF80420012208E05CEA010206D03022E8
:1043B0008DF804208DF8050002229046009B83F0C2
:1043C000080353EA0A030AD15CEA010201D1620739
:1043D00005D530228DF804204FF001087F1E5828A3
:1043E00004D034A003900EA802900DE036A0F9E7A7
:1043F00053466046009AFFF793F984460398825C1F
:104400000298401E029002705CEA0100F0D102980E
:1044100006A9081A00F1200A600702D524F48034A6
:1044200000E00127574502DDA7EB0A0000E000206D
:1044300000EB0A01009005984144401A0590E00302
:1044400006D45B462146179A059800F0B3F9054457
:10445000002706E001A85A46C05D179990476D1CD9
:104460007F1C4745F6DBE0030CD55B462146179AD7
:10447000059800F09FF9054404E030205A4617994A
:1044800090476D1C0099481E00900029F5DC08E05B
:10449000029802995A460078491C02911799904750
:1044A0006D1CBAF10001AAF1010AF1DC65E100001E
:1044B00009280100303132333435363738396162FA
:1044C00063646566000000003031323334353637BE
:1044D00038394142434445460000000000F058F995
:1044E0000544761C307800287FF4ECAD19B02846DE
:1044F000BDE8F08F620700D4062709F1070222F019
:10450000070CFCE80223E14603F000485FEA080CD0
:1045100002D00FF2702C0DE05FEA045C02D50FF2BE
:10452000682C07E05FEAC47C02D00FF2602C01E047
:10453000AFF2700C4FF0FF3823F00043CDF850C0BD
:1045400065280CD006DC452809D046281DD0472810
:104550003DD13DE0662818D067287ED138E00021A3
:10456000112F01DB112000E0781CCDE9000106A924
:104570000EA8FFF743FCDDE90F010E9A039100211D
:10458000009207F1010A04914DE04FF000400097BE
:10459000CDE9011006A90EA8FFF730FCDDE90F02F6
:1045A00003920E9B11990022DDF80CA00093049257
:1045B00011B9791C00EB010AB7EB0A0004D4C0F171
:1045C000FF3007F1010A0490AAEB0700019044E0D4
:1045D000012F00DA01270021112F01DD112000E059
:1045E0003846CDE9000106A90EA8FFF707FCDDE972
:1045F0000F010E9A0391002104910092BA462107FF
:104600000CD40399514500DA8A46BAF1010F05DD51
:10461000009AAAF10101515C302908D0B84202DAAF
:1046200010F1040F06DA0121CDE9011015E0AAF11D
:104630000101E9E7002805DC049901440491AAEB93
:10464000000102E0411C514500DD8A460499401AF0
:10465000401C01904FF000400290200704D40198C4
:10466000504501DBCDF8048000208DF84F00029802
:104670000DF14F07B0F1004F25D02B200E9002987E
:104680004FF0020800280CDA404202902D200E90D4
:1046900007E00A210298FFF72DF83031029007F861
:1046A000011DB8F10001A8F10108F2DC0298002810
:1046B000EFD1791E0E980870307800F0200040F09D
:1046C000450007F8020D12A8C01B00F10708149856
:1046D000007800B1012000EB0A01019801EBE071C4
:1046E00005984144401A401E0590E00306D45B46FD
:1046F0002146179A059800F05DF805441498007853
:1047000018B15A46179990476D1CE00324D55B46B3
:104710002146179A059800F04DF805441CE00498CE
:10472000002807DBDDE90301884203DD0098405CD7
:10473000179901E0179930205A469047049805F1DF
:104740000105401C04900198401E019004D12E20C8
:104750005A46179990476D1CBAF10001AAF1010A57
:10476000DDDC05E017F8010B5A46179990476D1CE0
:10477000B8F10001A8F10108F4DC5B462146179A64
:104780000598ABE62D0000002B0000002000000083
:104790002DE9F041044600251E461746880404D43E
:1047A00005E039462020B0476D1C641EF9D5284627
:1047B000BDE8F0812DE9F041044600251E469046F3
:1047C000C80301D5302700E02027880404D505E080
:1047D00041463846B0476D1C641EF9D52846BDE8F1
:1047E000F0814A68002A06D00A68531C0B601070DA
:1047F0004868401E486070470A68531C0B60107080
:104800007047000010B5002821D0114B0022001F76
:10481000196803E0814203D80A4649680029F9D1A2
:1048200052B11368841A9C4204D100681844106085
:10483000104602E0506000E0186039B102680B1ABF
:10484000934203D10B681A4402604968416010BD6D
:1048500038000020F0B50B30154D20F00701002482
:10486000144A0FE003688B420BD38B4205D95E1AC2
:1048700043184768C3E9006700E04368136002C05B
:1048800004E0021D10680028ECD12046002802D167
:10489000286808B10020F0BD064A07481060074AA2
:1048A000121A22F00702C0E9002401202860D7E78D
:1048B0003C000020380000209401002090030020DC
:1048C0000040404040404040404041414141414023
:1048D00040404040404040404040404040404040D8
:1048E0004005020202020202020202020202020267
:1048F000022020202020202020202002020202026C
:1049000002029090909090901010101010101010C3
:1049100010101010101010101010101002020202CF
:104920000202888888888888080808080808080813
:10493000080808080808080808080808020202020F
:1049400040000000C148000868490008000000203D
:1049500044000000DC3D0008AC4900084400002091
:104960004C070000EC3D00080000000000000102C0
:1049700003040102030406070809020406080000F4
:1049800000A24A040000000000000000010203042D
:1049900006070809000000000000000000000000F9
:0C49A0000000000000000000000000000B
:0400000508000131BD
:00000001FF
